:1000000089C096C095C094C093C092C091C090C062
:100010008FC0C5C000000000000101010101010105
:1000200001010101010101020202020202020202B7
:10003000020202020202020202020202020202039F
:10004000030303030303030303030303030304047E
:10005000040404040404040404040505050505055A
:10006000050505060606060606060607070707072E
:100070000708080808080809090909090A0A0A0AF4
:100080000A0B0B0B0B0C0C0C0C0D0D0D0E0E0E0EAB
:100090000F0F0F1010101111121212131314141449
:1000A000151516161717181819191A1B1B1C1C1DC5
:1000B0001E1E1F202021222323242526262728290F
:1000C0002A2B2C2D2E2F3031323334353738393A14
:1000D0003B3D3E3F4142444547484A4C4D4F5152BB
:1000E0005456585A5C5E60626466696B6D707275D6
:1000F000777A7C7F8285888B8E9194979B9EA2A530
:10010000A9ACB0B4B8BCC0C4C9CDD2D6DBE0E5EA76
:10011000EFF4F9FF11241FBECFE9CDBF20E0A0E628
:10012000B0E001C01D92A236B207E1F702D04BC089
:1001300067CF87E087BB18BA81EA8FBD81E083BFB4
:1001400012BE19BE16BE19BC82E287B98FE886B905
:10015000789491E024E0B39903C0909361000EC0BD
:1001600080916100813051F41092610080916000B3
:1001700089278093600088B3822788BB80916000C4
:10018000882311F0369A01C016BE3FEF46E781E0A2
:10019000315040408040E1F700C00000DCCF1F92AA
:1001A0000F920FB60F921124EF93FF93E5B1F0E099
:1001B000EC5EFF4FE491E6BFFF91EF910F900FBE11
:0A01C0000F901F901895F894FFCFE0
:00000001FF
